{
  "contractName": "Notepad_con",
  "abi": [
    {
      "constant": true,
      "inputs": [
        {
          "name": "",
          "type": "uint256"
        }
      ],
      "name": "Owner_list",
      "outputs": [
        {
          "name": "hash_address",
          "type": "address"
        },
        {
          "name": "name",
          "type": "string"
        }
      ],
      "payable": false,
      "stateMutability": "view",
      "type": "function"
    },
    {
      "constant": true,
      "inputs": [
        {
          "name": "",
          "type": "uint256"
        }
      ],
      "name": "TaskID_to_Address",
      "outputs": [
        {
          "name": "",
          "type": "address"
        }
      ],
      "payable": false,
      "stateMutability": "view",
      "type": "function"
    },
    {
      "constant": true,
      "inputs": [],
      "name": "taskNumber",
      "outputs": [
        {
          "name": "",
          "type": "uint256"
        }
      ],
      "payable": false,
      "stateMutability": "view",
      "type": "function"
    },
    {
      "constant": true,
      "inputs": [],
      "name": "ownerNumber",
      "outputs": [
        {
          "name": "",
          "type": "uint256"
        }
      ],
      "payable": false,
      "stateMutability": "view",
      "type": "function"
    },
    {
      "constant": true,
      "inputs": [
        {
          "name": "",
          "type": "uint256"
        }
      ],
      "name": "TaskID_to_Task",
      "outputs": [
        {
          "name": "id",
          "type": "uint256"
        },
        {
          "name": "task_name",
          "type": "string"
        },
        {
          "name": "discription",
          "type": "string"
        },
        {
          "name": "ipfs_hash",
          "type": "string"
        },
        {
          "name": "finished",
          "type": "bool"
        },
        {
          "name": "timestamp",
          "type": "uint256"
        },
        {
          "name": "deadline",
          "type": "uint256"
        },
        {
          "name": "completedData",
          "type": "uint256"
        }
      ],
      "payable": false,
      "stateMutability": "view",
      "type": "function"
    },
    {
      "constant": true,
      "inputs": [
        {
          "name": "",
          "type": "uint256"
        }
      ],
      "name": "Task_list",
      "outputs": [
        {
          "name": "id",
          "type": "uint256"
        },
        {
          "name": "task_name",
          "type": "string"
        },
        {
          "name": "discription",
          "type": "string"
        },
        {
          "name": "ipfs_hash",
          "type": "string"
        },
        {
          "name": "finished",
          "type": "bool"
        },
        {
          "name": "timestamp",
          "type": "uint256"
        },
        {
          "name": "deadline",
          "type": "uint256"
        },
        {
          "name": "completedData",
          "type": "uint256"
        }
      ],
      "payable": false,
      "stateMutability": "view",
      "type": "function"
    },
    {
      "inputs": [],
      "payable": false,
      "stateMutability": "nonpayable",
      "type": "constructor"
    },
    {
      "anonymous": false,
      "inputs": [
        {
          "indexed": false,
          "name": "task_name",
          "type": "string"
        },
        {
          "indexed": false,
          "name": "discription",
          "type": "string"
        },
        {
          "indexed": false,
          "name": "ipfs_hash",
          "type": "string"
        },
        {
          "indexed": false,
          "name": "finished",
          "type": "bool"
        },
        {
          "indexed": false,
          "name": "deadline",
          "type": "uint256"
        },
        {
          "indexed": false,
          "name": "nowtime",
          "type": "uint256"
        },
        {
          "indexed": false,
          "name": "ownerAddr",
          "type": "address"
        }
      ],
      "name": "TaskAdded",
      "type": "event"
    },
    {
      "anonymous": false,
      "inputs": [
        {
          "indexed": false,
          "name": "ownerAddr",
          "type": "address"
        }
      ],
      "name": "OwnerAdded",
      "type": "event"
    },
    {
      "anonymous": false,
      "inputs": [
        {
          "indexed": false,
          "name": "id",
          "type": "uint256"
        },
        {
          "indexed": false,
          "name": "finished",
          "type": "bool"
        },
        {
          "indexed": false,
          "name": "completedData",
          "type": "uint256"
        }
      ],
      "name": "TaskFinishedChanged",
      "type": "event"
    },
    {
      "anonymous": false,
      "inputs": [
        {
          "indexed": false,
          "name": "id",
          "type": "uint256"
        },
        {
          "indexed": false,
          "name": "deadline",
          "type": "uint256"
        }
      ],
      "name": "TaskDDLChanged",
      "type": "event"
    },
    {
      "anonymous": false,
      "inputs": [
        {
          "indexed": false,
          "name": "id",
          "type": "uint256"
        },
        {
          "indexed": false,
          "name": "discription",
          "type": "string"
        }
      ],
      "name": "TaskDiscriptionChanged",
      "type": "event"
    },
    {
      "anonymous": false,
      "inputs": [
        {
          "indexed": false,
          "name": "id",
          "type": "uint256"
        },
        {
          "indexed": false,
          "name": "name",
          "type": "string"
        }
      ],
      "name": "TaskNameChanged",
      "type": "event"
    },
    {
      "anonymous": false,
      "inputs": [
        {
          "indexed": false,
          "name": "id",
          "type": "uint256"
        },
        {
          "indexed": false,
          "name": "ipfs_hash",
          "type": "string"
        }
      ],
      "name": "TaskFileChanged",
      "type": "event"
    },
    {
      "constant": false,
      "inputs": [
        {
          "name": "owner",
          "type": "address"
        }
      ],
      "name": "get_Owner_TaskList",
      "outputs": [
        {
          "name": "",
          "type": "uint256[]"
        }
      ],
      "payable": false,
      "stateMutability": "nonpayable",
      "type": "function"
    },
    {
      "constant": true,
      "inputs": [],
      "name": "getTaskIds",
      "outputs": [
        {
          "name": "",
          "type": "uint256[]"
        }
      ],
      "payable": false,
      "stateMutability": "view",
      "type": "function"
    },
    {
      "constant": false,
      "inputs": [
        {
          "name": "id",
          "type": "uint256"
        }
      ],
      "name": "getTask",
      "outputs": [
        {
          "name": "",
          "type": "uint256"
        },
        {
          "name": "",
          "type": "string"
        },
        {
          "name": "",
          "type": "string"
        },
        {
          "name": "",
          "type": "string"
        },
        {
          "name": "",
          "type": "bool"
        },
        {
          "name": "",
          "type": "address"
        }
      ],
      "payable": false,
      "stateMutability": "nonpayable",
      "type": "function"
    },
    {
      "constant": false,
      "inputs": [
        {
          "name": "id",
          "type": "uint256"
        }
      ],
      "name": "getTask_Date",
      "outputs": [
        {
          "name": "",
          "type": "uint256"
        },
        {
          "name": "",
          "type": "uint256"
        },
        {
          "name": "",
          "type": "uint256"
        }
      ],
      "payable": false,
      "stateMutability": "nonpayable",
      "type": "function"
    },
    {
      "constant": false,
      "inputs": [
        {
          "name": "_task_name",
          "type": "string"
        },
        {
          "name": "_discription",
          "type": "string"
        },
        {
          "name": "_ipfsHash",
          "type": "string"
        },
        {
          "name": "_deadline",
          "type": "uint256"
        },
        {
          "name": "ownerAddr",
          "type": "address"
        }
      ],
      "name": "addTask",
      "outputs": [],
      "payable": false,
      "stateMutability": "nonpayable",
      "type": "function"
    },
    {
      "constant": false,
      "inputs": [
        {
          "name": "ownerAddr",
          "type": "address"
        }
      ],
      "name": "addOwner",
      "outputs": [],
      "payable": false,
      "stateMutability": "nonpayable",
      "type": "function"
    },
    {
      "constant": false,
      "inputs": [
        {
          "name": "_id",
          "type": "uint256"
        }
      ],
      "name": "Task_finished_change",
      "outputs": [],
      "payable": false,
      "stateMutability": "nonpayable",
      "type": "function"
    },
    {
      "constant": false,
      "inputs": [
        {
          "name": "_id",
          "type": "uint256"
        },
        {
          "name": "_deadline",
          "type": "uint256"
        }
      ],
      "name": "Task_DDL_change",
      "outputs": [],
      "payable": false,
      "stateMutability": "nonpayable",
      "type": "function"
    },
    {
      "constant": false,
      "inputs": [
        {
          "name": "_id",
          "type": "uint256"
        },
        {
          "name": "_discription",
          "type": "string"
        }
      ],
      "name": "Task_discription_change",
      "outputs": [],
      "payable": false,
      "stateMutability": "nonpayable",
      "type": "function"
    },
    {
      "constant": false,
      "inputs": [
        {
          "name": "_id",
          "type": "uint256"
        },
        {
          "name": "_task_name",
          "type": "string"
        }
      ],
      "name": "Task_taskName_change",
      "outputs": [],
      "payable": false,
      "stateMutability": "nonpayable",
      "type": "function"
    },
    {
      "constant": false,
      "inputs": [
        {
          "name": "_id",
          "type": "uint256"
        },
        {
          "name": "_ipfsHash",
          "type": "string"
        }
      ],
      "name": "Task_ipfsHash_change",
      "outputs": [],
      "payable": false,
      "stateMutability": "nonpayable",
      "type": "function"
    }
  ],
  "bytecode": "0x608060405234801561001057600080fd5b506000600381905550600060058190555061243a806100306000396000f3006080604052600436106100f1576000357c0100000000000000000000000000000000000000000000000000000000900463ffffffff1680630198125a146100f65780630acf9fd2146101cf5780631d65e77e146102425780632f763a6e14610405578063384047b5146104785780634864a1c8146104e55780637065cb481461051257806372d18e8d1461055557806385fa988c146105805780639e067cff146105ab578063b4f645b514610750578063bcd148051461086f578063c08f22ba146108db578063c0d0db6214610973578063c2274356146109aa578063c5925416146109f9578063eb5acae314610a6c575b600080fd5b34801561010257600080fd5b5061012160048036038101908080359060200190929190505050610c11565b604051808373ffffffffffffffffffffffffffffffffffffffff1673ffffffffffffffffffffffffffffffffffffffff16815260200180602001828103825283818151815260200191508051906020019080838360005b83811015610193578082015181840152602081019050610178565b50505050905090810190601f1680156101c05780820380516001836020036101000a031916815260200191505b50935050505060405180910390f35b3480156101db57600080fd5b5061024060048036038101908080359060200190929190803590602001908201803590602001908080601f0160208091040260200160405190810160405280939291908181526020018383808284378201915050505050509192919290505050610cfc565b005b34801561024e57600080fd5b5061026d60048036038101908080359060200190929190505050610e15565b60405180878152602001806020018060200180602001861515151581526020018573ffffffffffffffffffffffffffffffffffffffff1673ffffffffffffffffffffffffffffffffffffffff168152602001848103845289818151815260200191508051906020019080838360005b838110156102f75780820151818401526020810190506102dc565b50505050905090810190601f1680156103245780820380516001836020036101000a031916815260200191505b50848103835288818151815260200191508051906020019080838360005b8381101561035d578082015181840152602081019050610342565b50505050905090810190601f16801561038a5780820380516001836020036101000a031916815260200191505b50848103825287818151815260200191508051906020019080838360005b838110156103c35780820151818401526020810190506103a8565b50505050905090810190601f1680156103f05780820380516001836020036101000a031916815260200191505b50995050505050505050505060405180910390f35b34801561041157600080fd5b5061047660048036038101908080359060200190929190803590602001908201803590602001908080601f01602080910402602001604051908101604052809392919081815260200183838082843782019150505050505091929192905050506110b2565b005b34801561048457600080fd5b506104a3600480360381019080803590602001909291905050506111cb565b604051808273ffffffffffffffffffffffffffffffffffffffff1673ffffffffffffffffffffffffffffffffffffffff16815260200191505060405180910390f35b3480156104f157600080fd5b50610510600480360381019080803590602001909291905050506111fe565b005b34801561051e57600080fd5b50610553600480360381019080803573ffffffffffffffffffffffffffffffffffffffff169060200190929190505050611400565b005b34801561056157600080fd5b5061056a6115f2565b6040518082815260200191505060405180910390f35b34801561058c57600080fd5b506105956115f8565b6040518082815260200191505060405180910390f35b3480156105b757600080fd5b506105d6600480360381019080803590602001909291905050506115fe565b604051808981526020018060200180602001806020018815151515815260200187815260200186815260200185815260200184810384528b818151815260200191508051906020019080838360005b83811015610640578082015181840152602081019050610625565b50505050905090810190601f16801561066d5780820380516001836020036101000a031916815260200191505b5084810383528a818151815260200191508051906020019080838360005b838110156106a657808201518184015260208101905061068b565b50505050905090810190601f1680156106d35780820380516001836020036101000a031916815260200191505b50848103825289818151815260200191508051906020019080838360005b8381101561070c5780820151818401526020810190506106f1565b50505050905090810190601f1680156107395780820380516001836020036101000a031916815260200191505b509b50505050505050505050505060405180910390f35b34801561075c57600080fd5b5061086d600480360381019080803590602001908201803590602001908080601f0160208091040260200160405190810160405280939291908181526020018383808284378201915050505050509192919290803590602001908201803590602001908080601f0160208091040260200160405190810160405280939291908181526020018383808284378201915050505050509192919290803590602001908201803590602001908080601f016020809104026020016040519081016040528093929190818152602001838380828437820191505050505050919291929080359060200190929190803573ffffffffffffffffffffffffffffffffffffffff16906020019092919050505061181b565b005b34801561087b57600080fd5b50610884611ca9565b6040518080602001828103825283818151815260200191508051906020019060200280838360005b838110156108c75780820151818401526020810190506108ac565b505050509050019250505060405180910390f35b3480156108e757600080fd5b5061091c600480360381019080803573ffffffffffffffffffffffffffffffffffffffff169060200190929190505050611d01565b6040518080602001828103825283818151815260200191508051906020019060200280838360005b8381101561095f578082015181840152602081019050610944565b505050509050019250505060405180910390f35b34801561097f57600080fd5b506109a86004803603810190808035906020019092919080359060200190929190505050611e32565b005b3480156109b657600080fd5b506109d560048036038101908080359060200190929190505050611ec6565b60405180848152602001838152602001828152602001935050505060405180910390f35b348015610a0557600080fd5b50610a6a60048036038101908080359060200190929190803590602001908201803590602001908080601f0160208091040260200160405190810160405280939291908181526020018383808284378201915050505050509192919290505050611f2c565b005b348015610a7857600080fd5b50610a9760048036038101908080359060200190929190505050612045565b604051808981526020018060200180602001806020018815151515815260200187815260200186815260200185815260200184810384528b818151815260200191508051906020019080838360005b83811015610b01578082015181840152602081019050610ae6565b50505050905090810190601f168015610b2e5780820380516001836020036101000a031916815260200191505b5084810383528a818151815260200191508051906020019080838360005b83811015610b67578082015181840152602081019050610b4c565b50505050905090810190601f168015610b945780820380516001836020036101000a031916815260200191505b50848103825289818151815260200191508051906020019080838360005b83811015610bcd578082015181840152602081019050610bb2565b50505050905090810190601f168015610bfa5780820380516001836020036101000a031916815260200191505b509b50505050505050505050505060405180910390f35b600481815481101515610c2057fe5b90600052602060002090600202016000915090508060000160009054906101000a900473ffffffffffffffffffffffffffffffffffffffff1690806001018054600181600116156101000203166002900480601f016020809104026020016040519081016040528092919081815260200182805460018160011615610100020316600290048015610cf25780601f10610cc757610100808354040283529160200191610cf2565b820191906000526020600020905b815481529060010190602001808311610cd557829003601f168201915b5050505050905082565b6003548211151515610d0d57600080fd5b80600283815481101515610d1d57fe5b90600052602060002090600802016003019080519060200190610d41929190612271565b5080600160008481526020019081526020016000206003019080519060200190610d6c929190612271565b507f81454a588647661b1c78bb9b40856eeee67841e836801eb543d951dfcd98fb2082826040518083815260200180602001828103825283818151815260200191508051906020019080838360005b83811015610dd6578082015181840152602081019050610dbb565b50505050905090810190601f168015610e035780820380516001836020036101000a031916815260200191505b50935050505060405180910390a15050565b6000606080606060008060008710151515610e2f57600080fd5b8660016000898152602001908152602001600020600101600160008a8152602001908152602001600020600201600160008b8152602001908152602001600020600301600160008c815260200190815260200160002060040160009054906101000a900460ff166000808d815260200190815260200160002060009054906101000a900473ffffffffffffffffffffffffffffffffffffffff16848054600181600116156101000203166002900480601f016020809104026020016040519081016040528092919081815260200182805460018160011615610100020316600290048015610f5e5780601f10610f3357610100808354040283529160200191610f5e565b820191906000526020600020905b815481529060010190602001808311610f4157829003601f168201915b50505050509450838054600181600116156101000203166002900480601f016020809104026020016040519081016040528092919081815260200182805460018160011615610100020316600290048015610ffa5780601f10610fcf57610100808354040283529160200191610ffa565b820191906000526020600020905b815481529060010190602001808311610fdd57829003601f168201915b50505050509350828054600181600116156101000203166002900480601f0160208091040260200160405190810160405280929190818152602001828054600181600116156101000203166002900480156110965780601f1061106b57610100808354040283529160200191611096565b820191906000526020600020905b81548152906001019060200180831161107957829003601f168201915b5050505050925095509550955095509550955091939550919395565b60035482111515156110c357600080fd5b806002838154811015156110d357fe5b906000526020600020906008020160010190805190602001906110f7929190612271565b5080600160008481526020019081526020016000206001019080519060200190611122929190612271565b507fc2531e4e676037cdb0c3002a1cb5470661d5bc53576f9fc0643244c20e609d0c82826040518083815260200180602001828103825283818151815260200191508051906020019080838360005b8381101561118c578082015181840152602081019050611171565b50505050905090810190601f1680156111b95780820380516001836020036101000a031916815260200191505b50935050505060405180910390a15050565b60006020528060005260406000206000915054906101000a900473ffffffffffffffffffffffffffffffffffffffff1681565b600354811115151561120f57600080fd5b60028181548110151561121e57fe5b906000526020600020906008020160040160009054906101000a900460ff161560028281548110151561124d57fe5b906000526020600020906008020160040160006101000a81548160ff0219169083151502179055506001600082815260200190815260200160002060040160009054906101000a900460ff16156001600083815260200190815260200160002060040160006101000a81548160ff0219169083151502179055506002818154811015156112d657fe5b906000526020600020906008020160040160009054906101000a900460ff16611300576000611306565b6103e842025b60028281548110151561131557fe5b9060005260206000209060080201600701819055506001600082815260200190815260200160002060040160009054906101000a900460ff1661135957600061135f565b6103e842025b60016000838152602001908152602001600020600701819055507fb561aa6beaff2be961919e634c9119dd3044706ebe08f4d7c6f04910ebeb1f26816001600084815260200190815260200160002060040160009054906101000a900460ff1660016000858152602001908152602001600020600701546040518084815260200183151515158152602001828152602001935050505060405180910390a150565b6114086122f1565b816000600190505b6004805490508110156114a5578173ffffffffffffffffffffffffffffffffffffffff1660048281548110151561144357fe5b906000526020600020906002020160000160009054906101000a900473ffffffffffffffffffffffffffffffffffffffff1673ffffffffffffffffffffffffffffffffffffffff161415151561149857600080fd5b8080600101915050611410565b60408051908101604052808573ffffffffffffffffffffffffffffffffffffffff168152602001602060405190810160405280600081525081525092506004839080600181540180825580915050906001820390600052602060002090600202016000909192909190915060008201518160000160006101000a81548173ffffffffffffffffffffffffffffffffffffffff021916908373ffffffffffffffffffffffffffffffffffffffff1602179055506020820151816001019080519060200190611573929190612321565b505050506005600081548092919060010191905055507f994a936646fe87ffe4f1e469d3d6aa417d6b855598397f323de5b449f765f0c384604051808273ffffffffffffffffffffffffffffffffffffffff1673ffffffffffffffffffffffffffffffffffffffff16815260200191505060405180910390a150505050565b60035481565b60055481565b6001602052806000526040600020600091509050806000015490806001018054600181600116156101000203166002900480601f0160208091040260200160405190810160405280929190818152602001828054600181600116156101000203166002900480156116b05780601f10611685576101008083540402835291602001916116b0565b820191906000526020600020905b81548152906001019060200180831161169357829003601f168201915b505050505090806002018054600181600116156101000203166002900480601f01602080910402602001604051908101604052809291908181526020018280546001816001161561010002031660029004801561174e5780601f106117235761010080835404028352916020019161174e565b820191906000526020600020905b81548152906001019060200180831161173157829003601f168201915b505050505090806003018054600181600116156101000203166002900480601f0160208091040260200160405190810160405280929190818152602001828054600181600116156101000203166002900480156117ec5780601f106117c1576101008083540402835291602001916117ec565b820191906000526020600020905b8154815290600101906020018083116117cf57829003601f168201915b5050505050908060040160009054906101000a900460ff16908060050154908060060154908060070154905088565b60006118256123a1565b6103e84202915060036000815480929190600101919050555061010060405190810160405280600354815260200188815260200187815260200186815260200160001515815260200183815260200185815260200160008152509050600281908060018154018082558091505090600182039060005260206000209060080201600090919290919091506000820151816000015560208201518160010190805190602001906118d5929190612321565b5060408201518160020190805190602001906118f2929190612321565b50606082015181600301908051906020019061190f929190612321565b5060808201518160040160006101000a81548160ff02191690831515021790555060a0820151816005015560c0820151816006015560e082015181600701555050506007600354908060018154018082558091505090600182039060005260206000200160009091929091909150555082600080600354815260200190815260200160002060006101000a81548173ffffffffffffffffffffffffffffffffffffffff021916908373ffffffffffffffffffffffffffffffffffffffff16021790555080600160006003548152602001908152602001600020600082015181600001556020820151816001019080519060200190611a0e929190612321565b506040820151816002019080519060200190611a2b929190612321565b506060820151816003019080519060200190611a48929190612321565b5060808201518160040160006101000a81548160ff02191690831515021790555060a0820151816005015560c0820151816006015560e08201518160070155905050600660008473ffffffffffffffffffffffffffffffffffffffff1673ffffffffffffffffffffffffffffffffffffffff168152602001908152602001600020600081548092919060010191905055507fc2c05427640cf3e68542b1bfa4ef7fe8295951c3a1a5f768c30adedf8bf7f749878787600088878960405180806020018060200180602001881515151581526020018781526020018681526020018573ffffffffffffffffffffffffffffffffffffffff1673ffffffffffffffffffffffffffffffffffffffff16815260200184810384528b818151815260200191508051906020019080838360005b83811015611b92578082015181840152602081019050611b77565b50505050905090810190601f168015611bbf5780820380516001836020036101000a031916815260200191505b5084810383528a818151815260200191508051906020019080838360005b83811015611bf8578082015181840152602081019050611bdd565b50505050905090810190601f168015611c255780820380516001836020036101000a031916815260200191505b50848103825289818151815260200191508051906020019080838360005b83811015611c5e578082015181840152602081019050611c43565b50505050905090810190601f168015611c8b5780820380516001836020036101000a031916815260200191505b509a505050505050505050505060405180910390a150505050505050565b60606007805480602002602001604051908101604052809291908181526020018280548015611cf757602002820191906000526020600020905b815481526020019060010190808311611ce3575b5050505050905090565b606080600080600660008673ffffffffffffffffffffffffffffffffffffffff1673ffffffffffffffffffffffffffffffffffffffff16815260200190815260200160002054604051908082528060200260200182016040528015611d755781602001602082028038833980820191505090505b50925060009150600190505b600280549050811015611e27578473ffffffffffffffffffffffffffffffffffffffff1660008083815260200190815260200160002060009054906101000a900473ffffffffffffffffffffffffffffffffffffffff1673ffffffffffffffffffffffffffffffffffffffff161415611e1a57808383815181101515611e0357fe5b906020019060200201818152505081806001019250505b8080600101915050611d81565b829350505050919050565b6003548211151515611e4357600080fd5b80600283815481101515611e5357fe5b9060005260206000209060080201600601819055508060016000848152602001908152602001600020600601819055507fcc357699eb1b4ab521b7c3200fbb6084d9b598889ddacd041926be5a59d935f98282604051808381526020018281526020019250505060405180910390a15050565b6000806000808410151515611eda57600080fd5b6001600085815260200190815260200160002060050154600160008681526020019081526020016000206006015460016000878152602001908152602001600020600701549250925092509193909250565b6003548211151515611f3d57600080fd5b80600283815481101515611f4d57fe5b90600052602060002090600802016002019080519060200190611f71929190612271565b5080600160008481526020019081526020016000206002019080519060200190611f9c929190612271565b507f229cd67ab8feb32ae9e2a817a22caf33ee0b7be01e3e24c50590a4fbe2e1958782826040518083815260200180602001828103825283818151815260200191508051906020019080838360005b83811015612006578082015181840152602081019050611feb565b50505050905090810190601f1680156120335780820380516001836020036101000a031916815260200191505b50935050505060405180910390a15050565b60028181548110151561205457fe5b9060005260206000209060080201600091509050806000015490806001018054600181600116156101000203166002900480601f0160208091040260200160405190810160405280929190818152602001828054600181600116156101000203166002900480156121065780601f106120db57610100808354040283529160200191612106565b820191906000526020600020905b8154815290600101906020018083116120e957829003601f168201915b505050505090806002018054600181600116156101000203166002900480601f0160208091040260200160405190810160405280929190818152602001828054600181600116156101000203166002900480156121a45780601f10612179576101008083540402835291602001916121a4565b820191906000526020600020905b81548152906001019060200180831161218757829003601f168201915b505050505090806003018054600181600116156101000203166002900480601f0160208091040260200160405190810160405280929190818152602001828054600181600116156101000203166002900480156122425780601f1061221757610100808354040283529160200191612242565b820191906000526020600020905b81548152906001019060200180831161222557829003601f168201915b5050505050908060040160009054906101000a900460ff16908060050154908060060154908060070154905088565b828054600181600116156101000203166002900490600052602060002090601f016020900481019282601f106122b257805160ff19168380011785556122e0565b828001600101855582156122e0579182015b828111156122df5782518255916020019190600101906122c4565b5b5090506122ed91906123e9565b5090565b6040805190810160405280600073ffffffffffffffffffffffffffffffffffffffff168152602001606081525090565b828054600181600116156101000203166002900490600052602060002090601f016020900481019282601f1061236257805160ff1916838001178555612390565b82800160010185558215612390579182015b8281111561238f578251825591602001919060010190612374565b5b50905061239d91906123e9565b5090565b61010060405190810160405280600081526020016060815260200160608152602001606081526020016000151581526020016000815260200160008152602001600081525090565b61240b91905b808211156124075760008160009055506001016123ef565b5090565b905600a165627a7a723058202fa726a56ad8fd68c9b9f3ce187ea6eb212dd7086dea6aab50d18d19e745b8340029",
  "source": "pragma solidity ^0.4.24;\r\n\r\n/**\r\n * The Notepad_con contract does this and that...\r\n */\r\ncontract Notepad_con {\r\n    //person \r\n    struct  Owner {\r\n        address hash_address;\r\n        string  name;   \r\n    }\r\n       \r\n    //Task\r\n    struct Task {\r\n        uint id;\r\n        string task_name;\r\n        string discription;\r\n        string ipfs_hash;\r\n        bool finished;\r\n        uint timestamp;\r\n        uint deadline;\r\n        uint completedData; \r\n    }\r\n\r\n\r\n    //one owner might have many tasks,but for one task,it only has one owner\r\n    mapping (uint => address) public TaskID_to_Address;\r\n    mapping (uint => Task) public TaskID_to_Task;\r\n    \r\n\r\n    //the task list ,the number of task,all of the tasks are stored here\r\n    Task[] public Task_list;\r\n    uint public taskNumber;\r\n\r\n    \r\n    //the owner list ,and owner number\r\n    Owner[] public Owner_list;\r\n    uint public ownerNumber;\r\n\r\n    //mapping that every owner's Task count \r\n    mapping (address => uint) OwnerTaskCount;\r\n\r\n    //taskID list\r\n    uint[] taskIds;\r\n\r\n    //events\r\n    event TaskAdded(\r\n        string task_name, \r\n        string discription, \r\n        string ipfs_hash, \r\n        bool finished, \r\n        uint deadline,\r\n        uint nowtime, \r\n        address ownerAddr);\r\n\r\n    event OwnerAdded(address ownerAddr);\r\n    event TaskFinishedChanged(uint id , bool finished, uint completedData);\r\n    event TaskDDLChanged(uint id ,uint deadline);\r\n    event TaskDiscriptionChanged(uint id ,string discription);\r\n    event TaskNameChanged(uint id ,string name);\r\n    event TaskFileChanged(uint id ,string ipfs_hash);\r\n    \r\n    \r\n          \r\n    //Constructor\r\n    constructor() public {\r\n        taskNumber = 0;\r\n        ownerNumber = 0;\r\n    }\r\n   \r\n    //get the certain owner's Task list,return the id array\r\n    function get_Owner_TaskList (address owner) public returns(uint[]) {\r\n        uint[] memory TaskIdList = new uint[](OwnerTaskCount[owner]);\r\n        uint index = 0;\r\n        for(uint i = 1;i < Task_list.length; i++)\r\n        {      \r\n             if(TaskID_to_Address[i]==owner)\r\n             {\r\n                TaskIdList[index]=i;\r\n                index ++;\r\n             }\r\n        }\r\n        return TaskIdList;\r\n    }\r\n\r\n    //get the id list \r\n    function getTaskIds() public constant returns(uint[]) {\r\n       return taskIds;\r\n    }      \r\n        \r\n    //get task by id,\r\n    function getTask (uint id) public \r\n    returns(\r\n        uint,\r\n        string,\r\n        string,\r\n        string,\r\n        bool,\r\n        address) \r\n    {\r\n        require (id >= 0);       \r\n        return(\r\n         id,\r\n         TaskID_to_Task[id].task_name,\r\n         TaskID_to_Task[id].discription,\r\n         TaskID_to_Task[id].ipfs_hash,\r\n         TaskID_to_Task[id].finished,\r\n         TaskID_to_Address[id]\r\n         );      \r\n    }\r\n\r\n    //get task date information by _id\r\n    function getTask_Date (uint id) public returns(uint, uint, uint) {       \r\n        require (id>=0);\r\n        return(\r\n        TaskID_to_Task[id].timestamp,\r\n        TaskID_to_Task[id].deadline,\r\n        TaskID_to_Task[id].completedData\r\n        );\r\n        \r\n    }\r\n    \r\n      \r\n\r\n\r\n    //add task\r\n    function addTask (\r\n        string _task_name,\r\n        string _discription,\r\n        string _ipfsHash,\r\n        uint _deadline,\r\n        address ownerAddr ) public {\r\n        //the length of ipfs hash is 46      \r\n        //require (bytes(_hash).length == 46);\r\n        //the length of task_name must between 0 to 256\r\n        //require (bytes(_task_name).length<=256&&bytes(_task_name).length>0);\r\n\r\n        //timestamp is now\r\n        uint update_time = now * 1000;\r\n\r\n        taskNumber++;\r\n        Task memory task = Task(taskNumber, _task_name, _discription, _ipfsHash, false, update_time, _deadline,0);\r\n\r\n        //add into Task_list\r\n        Task_list.push(task);\r\n        taskIds.push(taskNumber);\r\n\r\n        //add into mapping\r\n        TaskID_to_Address[taskNumber] = ownerAddr;\r\n        TaskID_to_Task[taskNumber] = task;\r\n        OwnerTaskCount[ownerAddr]++;\r\n        emit TaskAdded(_task_name, _discription, _ipfsHash, false, _deadline, update_time, ownerAddr);\r\n    }\r\n\r\n   //judge whether the Owner is in the list\r\n    modifier OwnerNotExist(address owner) { \r\n        for(uint i=1; i <Owner_list.length;i++)\r\n        {\r\n            require (Owner_list[i].hash_address != owner); \r\n        }\r\n        _; \r\n    }\r\n    \r\n\r\n    function addOwner (address ownerAddr) OwnerNotExist(ownerAddr) public {\r\n        Owner memory owner = Owner(ownerAddr,\"\");\r\n        Owner_list.push(owner);\r\n        ownerNumber++;\r\n        emit OwnerAdded(ownerAddr);\r\n    }\r\n    \r\n  \r\n    //change the state that has been finished or not\r\n    function Task_finished_change (uint _id) public {\r\n        //find the task\r\n        require (_id <= taskNumber); \r\n        //Task_list update\r\n        Task_list[_id].finished = !Task_list[_id].finished;\r\n        //mapping update\r\n        TaskID_to_Task[_id].finished = !TaskID_to_Task[_id].finished;\r\n\r\n        //change the completedData\r\n        Task_list[_id].completedData = Task_list[_id].finished ? now*1000 : 0;\r\n        TaskID_to_Task[_id].completedData = TaskID_to_Task[_id].finished ? now*1000 : 0;\r\n\r\n        emit TaskFinishedChanged(_id, TaskID_to_Task[_id].finished, TaskID_to_Task[_id].completedData);      \r\n    }\r\n\r\n    //change the deadline,confirming that the time's type is unit by web input\r\n    function Task_DDL_change (uint _id, uint256 _deadline) public {        \r\n        require (_id <= taskNumber);       \r\n        Task_list[_id].deadline = _deadline;\r\n        //mapping update\r\n        TaskID_to_Task[_id].deadline = _deadline;\r\n        emit TaskDDLChanged(_id, _deadline);\r\n    }\r\n        \r\n    //change the discription of the task\r\n    function Task_discription_change (uint _id, string _discription) public {\r\n        require (_id <= taskNumber);\r\n        Task_list[_id].discription = _discription;\r\n        //mapping update\r\n        TaskID_to_Task[_id].discription = _discription; \r\n        emit TaskDiscriptionChanged(_id, _discription);     \r\n    }\r\n\r\n    //change the name of the task\r\n    function Task_taskName_change (uint _id, string _task_name)  public {\r\n        require (_id <= taskNumber);\r\n        Task_list[_id].task_name = _task_name;\r\n        //mapping update\r\n        TaskID_to_Task[_id].task_name = _task_name;\r\n        emit TaskNameChanged(_id, _task_name);           \r\n    }\r\n    \r\n    //change file hash \r\n    function Task_ipfsHash_change (uint _id, string _ipfsHash) public {\r\n       require (_id <= taskNumber);\r\n       Task_list[_id].ipfs_hash = _ipfsHash;\r\n       //mapping update\r\n       TaskID_to_Task[_id].ipfs_hash = _ipfsHash;\r\n       emit TaskFileChanged(_id, _ipfsHash); \r\n    }\r\n            \r\n    \r\n}\r\n",
  "sourcePath": "E:\\Dapp_Project\\Dapp\\contracts\\Notepad_con.sol",
  "compiler": {
    "name": "solc",
    "version": "0.4.24+commit.e67f0147.Emscripten.clang"
  },
  "schemaVersion": "2.0.1",
  "updatedAt": "2018-12-17T08:13:56.708Z"
}